:020000040800F2
:100000006009002005800008210D0008230D00086C
:10001000270D00082B0D00082F0D00080000000020
:10002000000000000000000000000000330D000888
:10003000350D000800000000370D0008390D0008DC
:100040001F8000081F8000081F8000081F80000814
:100050001F8000081F8000081F8000081F80000804
:100060001F8000081F8000081F8000081F800008F4
:100070001F8000081F8000081F8000081F800008E4
:100080001F8000081F8000081F8000081F800008D4
:100090001F8000081F8000081F8000081F800008C4
:1000A0001F8000081F8000081F8000081F800008B4
:1000B0001F8000081F80000849A700081F80000853
:1000C0001F8000081F8000081F8000081F80000894
:1000D0001F8000087B7F00081F8000081F80000829
:1000E0001F8000081F8000081F8000081F80000874
:1000F0001F8000081F8000081F8000081F80000864
:100100001F8000081F8000081F8000081F80000853
:100110001F8000081F8000081F8000081F80000843
:100120001F8000081F8000081F8000081F80000833
:100130001F8000081F8000081F8000081F80000823
:100140001F8000081F8000081F8000081F80000813
:100150001F8000081F8000081F8000081F80000803
:100160001F8000081F8000081F8000081F800008F3
:100170001F8000081F8000081F8000081F800008E3
:100180001F8000081F80000800F002F800F06DF8E2
:100190000AA090E8000C82448344AAF10107DA45E2
:1001A00001D100F062F8AFF2090EBAE80F0013F0C7
:1001B000010F18BFFB1A43F001031847B8F4000001
:1001C000D8F400000A444FF0000C10F8013B13F083
:1001D000070408BF10F8014B1D1108BF10F8015BA0
:1001E000641E05D010F8016B641E01F8016BF9D193
:1001F00013F0080F1EBF10F8014BAD1C0C1B09D1EA
:100200006D1E58BF01F801CBFAD505E014F8016B5B
:1002100001F8016B6D1EF9D59142D6D370470000ED
:100220000023002400250026103A28BF78C1FBD8FF
:10023000520728BF30C148BF0B60704764290BF0DC
:10024000798075290BF0768078290BF0AF806329CF
:100250000BF0B98273290BF0BE82002070471FB5E6
:100260000CF0B3FE1FBD10B510BD0BF039FB1146ED
:10027000FFF7F5FF00F025F90BF057FB03B4FFF78C
:10028000F2FF03BC07F01AFEF0EE400AFE4A1268C5
:1002900000EB8202C2ED000AFB4A1268521C92FB7C
:1002A000F1F301FB1322F84B1A600022F74B1A807E
:1002B00011E0F64A128800EB820292ED000AF44A3D
:1002C00092ED001A30EE010A82ED000AEF4A128820
:1002D000521CEE4B1A80ED4A12888A42E9DBEC4A46
:1002E00092ED001A00EE101AF8EEC01A81EE210A03
:1002F000704700B5B0EE402A0A21E648B0EE420A47
:10030000FFF7C2FFE44880ED000AE44800680028D7
:1003100005DDE2480068401EE049086000BD00BFFE
:10032000FCE710B5044600BF4021DD4809F020F885
:100330000028F9D02146DA4808F06AFF10BDF0B570
:1003400089B006460F4615461C2D01DD09B0F0BDEB
:10035000002101AAE81C115488208DF804008DF8B2
:1003600005608DF80650002405E0395DE01C01AA07
:100370001154601CC4B2AC42F7DB00240AE001A9AE
:10038000E81C085C095D0844C1B201AAE81C1154CC
:10039000601CC4B2E81C8442F1DB002405E001A922
:1003A000085DFFF7BEFF601CC4B2281D8442F6DB67
:1003B00000BFCBE77EB5DDE90745060A8DF8006092
:1003C000C6B28DF801600E0A8DF80260CEB28DF8CB
:1003D0000360160A8DF80460D6B28DF805601E0A17
:1003E0008DF80660DEB28DF80760260A8DF8086089
:1003F000E6B28DF809602E0A8DF80A60EEB28DF82B
:100400000B607EBD2DE9F04787B00FAD95E8E01099
:10041000DDF84C80002407E04FF000090DF804904F
:1004200004F1010909F0FF041C2CF5DB4FEA102947
:100430008DF8009000F0FF098DF801904FEA112926
:100440008DF8029001F0FF098DF803904FEA122910
:100450008DF8049002F0FF098DF805904FEA1329FA
:100460008DF8069003F0FF098DF807904FEA1529E3
:100470008DF8089005F0FF098DF809904FEA1629CC
:100480008DF80A9006F0FF098DF80B904FEA1729B6
:100490008DF8129007F0FF098DF813904FEA1C2990
:1004A0008DF814900CF0FF098DF815904FEA18297B
:1004B0008DF8169008F0FF098DF8179007B0BDE889
:1004C000F08790B00025012600BF0027A846002035
:1004D0000F900E908146824683464FF4A06007F04D
:1004E000B1FDA82007F068FC4FF4E13007F0F3FC01
:1004F0006CA00AF0C3FEC82007F0C0FC6BA00AF095
:10050000BDFE4FF4FA6007F0B9FC6BA00AF0B6FE2E
:100510004FF4FA6007F0B2FC6AA00AF0AFFEC82000
:1005200007F0ACFC6BA00AF0A9FE41F2883007F09E
:10053000A5FC71A00AF0A2FE4FF4FA6007F09EFC41
:1005400071A00AF09BFE4FF4FA6007F097FC79A0C7
:100550000AF094FE4FF4FA6007F090FC00F0F6FC0D
:1005600000F014FD01F04BFA04F0BFFA00F08AFD30
:100570004FF478407349088073A018211E234FF46C
:10058000FA72CDE900103221184604F0BAF875A0CD
:1005900018211E234FF4FA72CDE900104FF4C871F0
:1005A000184604F0AEF871A018211E234FF4FA7219
:1005B000CDE900101146184604F0A3F818E06DA02C
:1005C00010210B46C822CDE9001082211E2004F024
:1005D00098F8C82007F052FC4FF6FF709223EF22E4
:1005E000822100901E2003F031FEC82007F046FC57
:1005F00006F0B5FB0028E2D162A010210B46C8220C
:10060000CDE9001082211E2004F07BF860A01021AB
:100610000B46C822CDE9001096211E2004F071F887
:100620001F20484908805FA010210B46C822CDE951
:100630000010AA211E2004F064F85DA010210B46D2
:10064000C822CDE9001011461E2004F05AF85CA023
:1006500010210B46C822CDE90010DC211E2004F039
:1006600050F85BA010210B46C822CDE90010F02104
:100670001E2004F046F85AA010210B46C822CDE9EE
:1006800000104FF48271B3E02C000020080000201D
:100690000C000020F0010020300000203400002079
:1006A0000010014041540D0A0000000041542B523B
:1006B00053540D0A0000000041542B435751415040
:1006C0000D0A000041542B43574D4F44453D310D19
:1006D0000A00000041542B43574A41503D22737396
:1006E000737337373737222C2271717171777777AF
:1006F00077220D0A0000000041542B4349504D4F12
:1007000044453D310D0A000041542B434950535498
:100710004152543D22544350222C223139322E3141
:1007200036382E34332E323132222C383038320DD6
:100730000A00000041542B43495053454E440D0AD2
:10074000000000004E0000202020436C696D6220F4
:10075000636F756E74696E672073797374656D204D
:10076000000000005374657073000000666C6F6FCA
:10077000720000004D505536303530204572726F92
:10078000720000004D505536303530204F4B000080
:100790004B4559303A55504C4F4144204F4E2F4F06
:1007A0004646000055504C4F4144204F4E2000001B
:1007B0002054656D703A202020202E204300000038
:1007C00050697463683A202020202E2043000000E6
:1007D00020526F6C6C3A202020202E204300000015
:1007E00020596177203A202020202E20430000004D
:1007F0001E2003F086FF182003230090FE48028885
:100800004FF4C871642003F0D3FE18200323009036
:10081000FA4802884FF4FA71642003F0C9FEF8A088
:100820000AF02CFDC82007F029FB76E20BAA0CA9E0
:100830000DA806F0E4FA00287ED104F0CDF90446B4
:1008400008AA09A90AA804F026FA05AA06A907A871
:1008500004F0F9F97EB1BDF91400BDF91810CDE925
:100860000010BDF91C30BDF92020BDF92410BDF9E0
:100870002800FFF79FFD9EB39DED0B0AF2EE040AE0
:1008800020EE200ABDEEC00A10EE100A00B29DED67
:100890000D0ADFEDDE0A20EE200ABDEEC00A10EEE2
:1008A000101A09B29DED0C0ADFEDD80A20EE200ADD
:1008B000BDEEC00A10EE102A12B2BDF91430CDE917
:1008C0000132CDE90310BDF918000090BDF91C30CC
:1008D000BDF92020BDF92410BDF92800FFF792FDD5
:1008E0009DED0B0ADFEDC90A30EE200ABCEEC00A0E
:1008F00010EE100AC6490880C0480088BE49098821
:10090000BDF91420BDF91830CDE90132CDE903104D
:10091000BDF91C000090BDF92030BDF92420BDF9BF
:100920002810BCA00AF0AAFC142007F0A7FABDF911
:100930002800B84204DD00E025E1BDF9280000E010
:1009400038460746BDF92800404502DABDF92800BF
:1009500000E040468046BDF928100F98814202DD34
:10096000BDF9280000E00F980F90BDF928100E98EF
:10097000814202DABDF9280000E00E980E90BDF920
:100980002800484502DDBDF9280000E048468146C0
:10099000BDF92800504502DABDF9280000E05046B4
:1009A00082460BF1010000F0FF0BBBF1190F41DD96
:1009B000A7EB0800B0F5FA5F04DCA9EB0A00B0F57C
:1009C000FA5F2CDD8C480088401C8B490880182079
:1009D00003230090084602884FF4C871642003F096
:1009E000E7FD854800880F2190FBF1F201FB120022
:1009F000A8B900F084FB282007F040FA00F078FB4B
:100A00007E480088401C7D49088018200323009000
:100A1000084602884FF4FA71642003F0C9FD854F3F
:100A20004FF4803838460F9040460E90B9468246C3
:100A30004FF0000B0421804807F040FF40BB6420CA
:100A400007F01CFA04217C4807F038FF00BB6CA0BB
:100A50000AF014FC4FF4167007F010FA00206749F2
:100A60000880654908801820032300900846028802
:100A70004FF4C871642003F09BFD182003230090FD
:100A80005E4802884FF4FA71642003F091FD44E15E
:100A9000052095FBF0F100FB1150002873D1AFF257
:100AA000F02010210B46C822CDE9001011461E206F
:100AB00003F027FEAFF2F82010210B46C822CDE943
:100AC0000010DC211E2003F01CFEAFF2FC201021E0
:100AD0000B46C822CDE90010F0211E2003F011FEC4
:100AE000AFF2043010210B46C822CDE900104FF4BC
:100AF00082711E2003F005FE002C0ADA002010236C
:100B00002D22C82100904E2003F0B9FC604204B2AF
:100B100007E0002010232022C82100904E2003F07F
:100B2000AEFC642094FBF0F00490102003230090AE
:100B3000C8215620049A03F03BFD0A2094FBF0F1F3
:100B400000FB11400490102001230090C821762062
:100B5000049A03F02DFD9DED0D0AF2EE040A20EE3D
:100B6000200ABDEEC00A10EE100A04B2002C0BDA07
:100B7000002010232D22DC2100904E2003F07FFC6A
:100B8000604204B208E0C5E0002010232022DC21EE
:100B900000904E2003F073FC0A2094FBF0F00490C8
:100BA000102003230090DC215620049A03F000FD5E
:100BB0000A2094FBF0F100FB114004901020012367
:100BC0000090DC217620049A03F0F2FC9DED0C0AE3
:100BD000F2EE040A20EE200ABDEEC00A10EE100A62
:100BE00004B2002C2DDA002010232D22F0210090D9
:100BF0004E2003F044FC21E000000020060000200D
:100C00007374617274206D6D750D0A000000C84226
:100C1000020000206D6D7520256420256420256468
:100C20002025642025642025642025642025640D6A
:100C30000A0000000000FFFF00100240604204B202
:100C400007E0002010232022F02100904E2003F026
:100C500016FC0A2094FBF0F004901020032300906F
:100C6000F0215620049A03F0A3FC0A2094FBF0F133
:100C700000FB11400490102001230090F021762009
:100C8000049A03F095FC9DED0B0AF2EE040A20EEA7
:100C9000200ABDEEC00A10EE100A04B2002C0BDAD6
:100CA000002010232D224FF4827100904E2003F07B
:100CB000E6FB604204B208E00020102320224FF43B
:100CC000827100904E2003F0DAFB0A2094FBF0F0D2
:100CD00004901020032300904FF482715620049A50
:100CE00003F066FC0A2094FBF0F100FB1140049035
:100CF0001020012300904FF482717620049A03F0B3
:100D000057FC00250548006808B9012000E00020D4
:100D100002490860681C85B200BF87E5A482424290
:100D2000704700BFFEE700BFFEE700BFFEE700BF61
:100D3000FEE7704770477047704700000CB5002011
:100D4000019000907648006840F480307449086053
:100D500000BF7348006800F4003000900198401C08
:100D60000190009818B90198B0F5A04FF1D16C48E6
:100D7000006800F4003010B10120009001E0002074
:100D800000900098012846D165484030006840F046
:100D900080506349403108606248006840F4404038
:100DA000604908605E48083000685D4908310860A5
:100DB0000846006840F4004008600846006840F4B7
:100DC000A05008605848091F0860081F006840F0DC
:100DD0008070091F086000BF5148006800F0007073
:100DE0000028F9D040F20570504908604C4808309E
:100DF000006820F003004A4908310860084600688E
:100E000040F00200086000BF45480830006800F06C
:100E10000C000828F8D10CBD10B54548006840F416
:100E20007000434908603E48006840F001003C49BA
:100E3000086000203A4908310860394800683D4997
:100E40000840374908603C48091D0860081F0068D1
:100E500020F48020091F0860002031490C3108600F
:100E6000FFF76CFF4FF0006031498039086010BD1A
:100E700070B500200022022300240221284D0835ED
:100E80002D6805F00C0020B1042806D0082834D1C4
:100E900007E02A4D2A4E356033E02A4D284E356052
:100EA0002FE01F4D2D1D2D68C5F380541C4D2D1DA9
:100EB0002D6805F03F0154B1224DB5FBF1F5184EF8
:100EC000361D3668C6F3881605FB06F209E01B4D91
:100ED000B5FBF1F5124E361D3668C6F3881605FBD4
:100EE00006F20F4D2D1D2D68C5F301456D1C6B00DD
:100EF000B2FBF3F5124E356003E0104D104E356035
:100F000000BF00BF064D08352D68C5F303150E4E12
:100F1000705D0B4D2D68C540094E356070BD0000F9
:100F2000003802400070004008544007003C024076
:100F300088ED00E0FFFFF6FE103000240024F400EE
:100F40003800002000127A003C0000201CB501216E
:100F5000202007F0EFFE4FF4C060009001208DF8D4
:100F6000040000208DF8060003208DF80500012004
:100F70008DF807006946044807F03EFC4FF4C06155
:100F8000014807F0B5FC1CBD001402401CB501214E
:100F9000112007F0CFFE1C20009000208DF80400E7
:100FA00003208DF8050001208DF807006946574899
:100FB00007F022FC0120009002208DF8070069460E
:100FC000534807F019FC1CBD10B5044614B10120AC
:100FD000504908704F480078002837D010214B48FE
:100FE00007F06CFC78B10821484807F067FC50B165
:100FF0000421464807F062FC28B10121444807F06B
:101000005DFC012822D10A2006F038FF002041496A
:10101000087010213D4807F051FC08B9012010BDAF
:1010200008213A4807F04AFC08B90220F7E70421F2
:10103000364807F043FC08B90320F0E701213448A3
:1010400007F03CFC01281BD10420E8E710212F48C1
:1010500007F034FC012813D108212C4807F02EFC9E
:1010600001280DD10421294807F028FC012807D1C7
:101070000121274807F022FC10B9012025490870FA
:101080000020CCE71CB50121312007F053FE1C20C5
:10109000009000208DF8040003208DF80500012049
:1010A0008DF807006946194807F0A6FB012000905B
:1010B00002208DF807006946154807F09DFB4FF4A4
:1010C0008070009001208DF8040000208DF806004B
:1010D00003208DF8050000208DF8070069460E48B2
:1010E00007F08AFB4FF480710B4807F003FC1CBD2E
:1010F00010B54FF48071084807F0FCFB10BD10B527
:101100004FF48071044807F0F3FB10BD001002405B
:10111000000002404C0000200014024001B5BDF860
:1011200000000090BDF80000FE49088008BD01B530
:10113000BDF800000090BDF80000FA49891C088045
:1011400008BD08B5F748801C00880090BDF8000075
:1011500008BDF44A10804FF0D842A2F880107047C2
:1011600010B504462046FFF7D9FF052006F03EFEE5
:10117000FFF7E7FF10BDEC480089EA490880704797
:10118000E849891C0880704730B5014601F01F040A
:10119000C1F34513CA0AE50205EB43151544A8B28D
:1011A00030BD00BF011EA0F10102D0B2FAD17047DC
:1011B00010B502460C46DC48808841F6631188422F
:1011C00047D1D9488079A8B9D7480088401E801AED
:1011D00082B2D5494889FFF7A1FF0020FFF7A7FF9A
:1011E0000020FFF7A4FF1012FFF7A1FFD0B2FFF716
:1011F0009EFF16E0CC494889FFF790FF1012FFF7D9
:1012000096FFD0B2FFF793FFC7490988491EC1F383
:101210000F20FFF78CFFC4490978491EC8B2FFF7B9
:1012200086FFC1498889FFF779FF2012FFF77FFF0A
:10123000E0B2FFF77CFFBC494988491EC1F30F208B
:10124000FFF775FFB8498978491EC8B2FFF76FFFED
:101250003AE0B548808845F21051884220D1B24921
:101260004889FFF75BFF1012FFF761FFAE4949891C
:10127000491C88B2FFF752FFD0B2FFF758FFAA49C6
:101280008889FFF74BFF2012FFF751FFA649898994
:10129000491C88B2FFF742FFE0B2FFF748FF13E0B6
:1012A000A1494889FFF73AFF1012FFF740FFD0B27B
:1012B000FFF73DFF9C498889FFF730FF2012FFF7B9
:1012C00036FFE0B2FFF733FF10BD2DE9F0410546D0
:1012D0000E4600240027A04693480088A84203DD5C
:1012E00091484088B04202DC0020BDE8F0813146E0
:1012F0002846FFF75DFF8C48808845F210518842F0
:1013000004D14FF43850FFF709FF02E02E20FFF719
:1013100005FFFFF716FF04468348808841F66311F6
:10132000884201D12046E0E7FFF70BFF0446FFF7B4
:1013300008FF8046E7B24FF6FF7000EA0727E01289
:10134000C002B91240EA411040EAE820CDE700B5FA
:101350007548808845F21051884204D14FF42450DA
:10136000FFF7DCFE02E02920FFF7D8FE00BD00B544
:101370006D48808845F21051884204D14FF42050C6
:10138000FFF7CCFE02E02820FFF7C8FE00BDF0B555
:1013900005460024002764488079012805D1624869
:1013A000808841F66311884208D15F488079F0B99E
:1013B0005D48808841F66311884218D1082D15D206
:1013C000DFE805F00406080A0C0E101206250DE0F1
:1013D00007250BE0042509E0052507E0012505E0C8
:1013E000002503E0032501E0022500BF00BF082D12
:1013F0001CD2DFE805F00406090C0F12151800BF17
:1014000014E044F0800411E044F040040EE044F0A5
:10141000C0040BE044F0200408E044F0600405E060
:1014200044F0A00402E044F0E00400BF00BF3E48E6
:10143000808845F21051884202D14FF4585700E09D
:1014400036273948808849F24131884205D03648EC
:10145000808847F28971884201D144F0080421460E
:101460003846FFF776FE3048808841F6631188429F
:101470001DD004F0200068B12B4800882A49498813
:10148000884214DA28480688408827490880084698
:1014900046800CE02448008823494988884206DDBC
:1014A00021480688408820490880084646801E4812
:1014B000808845F21051884257D11B494889FFF76F
:1014C0002DFE0020FFF733FE17494989491C88B2D9
:1014D000FFF724FE0020FFF72AFE13494989891CE3
:1014E00088B2FFF71BFE10490988491EC1F30F207F
:1014F000FFF71DFE0C494989C91C88B2FFF70EFE93
:1015000009490978491EC8B2FFF711FE06498889C2
:10151000FFF704FE0020FFF70AFE03498989491CF2
:1015200088B203E07E00006C18020020FFF7F6FD91
:101530000020FFF7FCFDFE498989891C88B2FFF76E
:10154000EDFDFB494988491EC1F30F20FFF7EFFD70
:10155000F7498989C91C88B2FFF7E0FDF449897809
:10156000491EC8B2FFF7E3FD2DE0F1494889FFF7B6
:10157000D5FD0020FFF7DBFD0020FFF7D8FDEC498B
:101580000988491EC1F30F20FFF7D1FDE84909780A
:10159000491EC8B2FFF7CBFDE5498889FFF7BEFDBC
:1015A0000020FFF7C4FD0020FFF7C1FDE049498896
:1015B000491EC1F30F20FFF7BAFDDD498978491EA6
:1015C000C8B2FFF7B4FDF0BD30B504460D4629465C
:1015D0002046FFF7EDFDFFF7CEFDD6480088D6493F
:1015E000088030BD30B504460D46D148808845F2AC
:1015F0001051884220D1CE494889FFF78FFD201233
:10160000FFF795FDCA494989491C88B2FFF786FD55
:10161000E0B2FFF78CFDC6498889FFF77FFD2812ED
:10162000FFF785FDC2498989491C88B2FFF776FD1D
:10163000E8B2FFF77CFD42E0BD48808841F66311C7
:10164000884228D1BA48807920B9B9480088401E1C
:10165000001B84B2B6494889FFF760FD2012FFF7EE
:1016600066FDE0B2FFF763FD2012FFF760FDE0B218
:10167000FFF75DFDAE498889FFF750FD2812FFF79F
:1016800056FDE8B2FFF753FD2812FFF750FDE8B210
:10169000FFF74DFD13E0A6494889FFF73FFD2012F3
:1016A000FFF745FDE0B2FFF742FDA1498889FFF74A
:1016B00035FD2812FFF73BFDE8B2FFF738FD9C48E7
:1016C00000899D49891E08804FF0D840A0F88020ED
:1016D00030BD70B52DED048B0446BE20FFF71EFD16
:1016E0000520FFF724FD20460BF02AF941EC190BE9
:1016F0009FED920B53EC102B0BF036F941EC180BCD
:101700000BF0DAF885B22846FFF711FD0120FFF74C
:101710000EFDFF20FFF70BFD0020FFF708FD002066
:10172000FFF705FDBDEC048B70BD10B50446804885
:101730008471002C45D1F0207D4908804FF4A070C1
:1017400048800846808845F21051884210D14FF4F5
:101750003050774908814FF4285048814FF42C507D
:1017600088814FF4F07008804FF4487048801AE088
:101770006F48808841F6631188420DD12C206C4956
:1017800008812B2048812A2088814FF4F07008803E
:101790004FF44870488006E02C20654908812A20D3
:1017A00048812B2088816248808845F21031884228
:1017B0004CD14FF4A0705E4908804FF4F07048801F
:1017C00044E04FF4A0705A490880F0204880084651
:1017D000808845F21051884210D14FF4305054495E
:1017E00008814FF4285048814FF42C5088814FF4E1
:1017F000487008804FF4F07048801AE04C488088A8
:1018000041F6631188420DD12C20494908812A20D4
:1018100048812B2088814FF4487008804FF4F07085
:10182000488006E02C20424908812A2048812B204C
:1018300088813F48808845F21031884206D14FF4B4
:10184000F0703B4908804FF4A07048800020FFF7FB
:101850009EFD10BD2DE9F04104460D461E46A01820
:10186000401E87B2A819401E1FFA80F830488088B1
:1018700041F66311884231D12D48807901282DD05D
:101880002B480088801A001B84B2A819401E86B21B
:1018900027494889FFF742FC2012FFF748FCE0B2D5
:1018A000FFF745FCA118491EC1F30F20FFF73FFCCD
:1018B000A118491EC8B2FFF73AFC1D498889FFF7F5
:1018C0002DFC2812FFF733FCE8B2FFF730FC301292
:1018D000FFF72DFCF0B2FFF72AFC79E0144880886E
:1018E00045F21051884251D111494889FFF716FC41
:1018F0002012FFF71CFC0E494989491C88B2FFF7EA
:101900000DFCE0B2FFF713FC09494989891C88B234
:10191000FFF704FC3812FFF70AFC05494989C91C86
:1019200088B2FFF7FBFBF8B2FFF701FC004909E0C2
:10193000180200204E0000208000006C666666667B
:10194000666604408889FFF7E9FB2812FFF7EFFB82
:10195000FD498989491C88B2FFF7E0FBE8B2FFF72F
:10196000E6FBF9498989891C88B2FFF7D7FB4FEA62
:101970002820FFF7DCFBF4498989C91C88B2FFF7EE
:10198000CDFB08F0FF00FFF7D2FB21E0EE494889CC
:10199000FFF7C4FB2012FFF7CAFBE0B2FFF7C7FB5B
:1019A0003812FFF7C4FBF8B2FFF7C1FBE64988899C
:1019B000FFF7B4FB2812FFF7BAFBE8B2FFF7B7FB5B
:1019C0004FEA2820FFF7B3FB08F0FF00FFF7AFFB5B
:1019D000BDE8F08170B504460026DB4805884088E4
:1019E000454300210846FFF7E3FBFFF7C4FB00BFB8
:1019F00002E0D6480480761CAE42FAD370BD00B532
:101A0000A1B00020209001217A2007F093F9012154
:101A1000084607F0C7F94FF400401E9001208DF8EA
:101A20007C0000208DF87E0002208DF87D000120D2
:101A30008DF87F001EA9C64806F0DEFE4CF233701A
:101A40001E9002208DF87C0000208DF87E0003207F
:101A50008DF87D0001208DF87F001EA9BD4806F09D
:101A6000CBFE4FF680701E9002208DF87C00002087
:101A70008DF87E0003208DF87D0001208DF87F0019
:101A80001EA9B54806F0B8FE4FF480501E90022003
:101A90008DF87C0000208DF87E0003208DF87D00FD
:101AA00001208DF87F001EA9AC4806F0A5FE4FF47A
:101AB00080501E9002208DF87C0000208DF87E0062
:101AC00003208DF87D0001208DF87F001EA9A44819
:101AD00006F092FE0C2200219E4806F018FF0C2210
:101AE00001219C4806F013FF0C220421994806F0BE
:101AF0000EFF0C220521974806F009FF0C22082151
:101B0000944806F004FF0C220921924806F0FFFEDB
:101B10000C220A218F4806F0FAFE0C220E218D4875
:101B200006F0F5FE0C220F218A4806F0F0FE0C228A
:101B30000721894806F0EBFE0C220821864806F0B2
:101B4000E6FE0C220921844806F0E1FE0C220A215F
:101B5000814806F0DCFE0C220B217F4806F0D7FE00
:101B60000C2211467C4806F0D2FE0C220D217A4848
:101B700006F0CDFE0C220E21774806F0C8FE0C229E
:101B80000F21754806F0C3FE0C221146734806F07B
:101B9000BEFE0C221146724806F0B9FE0F200890D6
:101BA000002009903C200A9000200B900C900D9092
:101BB0000E90092001900020029008200390002040
:101BC000049005900690079006200F90002010903A
:101BD00011901020129000201390159014901690E0
:101BE00017904FF480501890002019904FF48040C7
:101BF0001A9000201B9008A81C9001A81D900FA807
:101C000006F0ABFA0121062006F032FB322006F086
:101C100035F9D320FFF782FAFFF793FA4A49888013
:101C2000FFF78FFA48498880FFF78BFA464988808A
:101C3000084680884FF6FF7101EA002042498880FB
:101C4000FFF77FFA4049898808433F498880084662
:101C5000808849F24131884275D00420FFF75EFA4E
:101C6000FFF76FFA38498880FFF76BFA36498880AA
:101C7000FFF767FA34498880084680884FF6FF717D
:101C800001EA002030498880FFF75BFA2E498988F5
:101C900008432D4988800846808848F2525188427E
:101CA00003D147F28970284988802748808847F205
:101CB00089718842D0D0D420FFF730FAFFF741FA7B
:101CC00021498880FFF73DFA1F498880FFF739FADC
:101CD0001D498880084680884FF6FF7101EA002080
:101CE00019498880FFF72DFA174989880843164952
:101CF00088800846808845F21031884279D0552185
:101D00004FF47040FFF725FAAA214FF20100FFF7C8
:101D100020FA52214FF20200FFF71BFA08214FF27E
:101D20000300FFF716FA01214FF20400FFF711FA42
:101D30004FF44540FFF7F2F9FFF703FA02498880B4
:101D4000084680880EE054E0180200208000006CF5
:101D500000040240000C0240001002400014024047
:101D6000001802404FF6FF7101EA0020FE4988800A
:101D70004CF20150FFF7D2F9FFF7E3F9FA498988ED
:101D80000843F9498880052006F078F8F6488088ED
:101D9000B0F5004F03D145F21050F3498880F24866
:101DA000808845F21051884223D0A120FFF7B6F970
:101DB000FFF7C7F9EC498880FFF7C3F9EA49888043
:101DC000084680884FF6FF7101EA0020E6498880C6
:101DD000FFF7B7F9E44989880843E3498880084652
:101DE000808845F26171884203D141F66310DE4973
:101DF0008880DD48808849F24131884217D0DA482E
:101E0000808847F28971884211D0D748808845F28E
:101E1000103188420BD0D448808845F21051884256
:101E200005D0D148808841F6631188422CD1CF4833
:101E3000006820F00F004FF02041C1F81C01084657
:101E4000D0F81C0120F47060C1F81C010846D0F8DD
:101E50001C0140F00300C1F81C01C348808847F210
:101E60008971884208D1C148006840F440704FF041
:101E70002041C1F81C0107E0BC48006840F4007034
:101E80004FF02041C1F81C01B7488188B8A009F083
:101E9000F5F9B548808849F2413188427ED1CF209A
:101EA000FFF73CF90020FFF742F9C120FFF73FF9A7
:101EB0003020FFF73CF9ED20FFF730F96420FFF701
:101EC00036F90320FFF733F91220FFF730F98120AC
:101ED000FFF72DF9E820FFF721F98520FFF727F913
:101EE0001020FFF724F97A20FFF721F9CB20FFF724
:101EF00015F93920FFF71BF92C20FFF718F90020FE
:101F0000FFF715F93420FFF712F90220FFF70FF958
:101F1000F720FFF703F92020FFF709F9EA20FFF780
:101F2000FDF80020FFF703F90020FFF700F9C020BB
:101F3000FFF7F4F81B20FFF7FAF8C120FFF7EEF8DF
:101F40000120FFF7F4F8C520FFF7E8F83020FFF78D
:101F5000EEF83020FFF7EBF8C720FFF7DFF8B720E7
:101F6000FFF7E5F83620FFF7D9F84820FFF7DFF84C
:101F70003A20FFF7D3F85520FFF7D9F8B120FFF743
:101F8000CDF80020FFF7D3F81A20FFF7D0F8B620DD
:101F9000FFF7C4F80A20FFF7CAF800E097E0A22094
:101FA000FFF7C5F8F220FFF7B9F80020FFF7BFF8F8
:101FB0002620FFF7B3F80120FFF7B9F8E020FFF77C
:101FC000ADF80F20FFF7B3F82A20FFF7B0F828206C
:101FD000FFF7ADF80820FFF7AAF80E20FFF7A7F8E3
:101FE0000820FFF7A4F85420FFF7A1F8A920FFF775
:101FF0009EF84320FFF79BF80A20FFF798F80F2080
:10200000FFF795F80020FFF792F80020FFF78FF810
:102010000020FFF78CF80020FFF789F8E120FFF798
:102020007DF80020FFF783F81520FFF780F81720D0
:10203000FFF77DF80720FFF77AF81120FFF777F810
:102040000620FFF774F82B20FFF771F85620FFF7F2
:102050006EF83C20FFF76BF80520FFF768F81020BA
:10206000FFF765F80F20FFF762F83F20FFF75FF8F2
:102070003F20FFF75CF80F20FFF759F82B20FFF700
:102080004DF80020FFF753F80020FFF750F801202B
:10209000FFF74DF83F20FFF74AF82A20FFF73EF8F8
:1020A0000020FFF744F80020FFF741F80020FFF779
:1020B0003EF8EF20FFF73BF81120FFF72FF87820CC
:1020C00005F0DCFE2920FFF729F802F0B3B8264816
:1020D000808847F2897188427DD11120FFF71EF870
:1020E000782005F0CBFE3620FFF718F80020FFF728
:1020F0001EF83A20FFF712F80520FFF718F8B22073
:10210000FFF70CF80C20FFF712F80C20FFF70FF880
:102110000020FFF70CF83320FFF709F83320FFF712
:1021200006F8B720FEF7FAFF3520FFF700F8BB20CE
:10213000FEF7F4FF3220FEF7FAFFC020FEF7EEFFB5
:102140000C20FEF7F4FFC220FEF7E8FF0120FEF7A7
:10215000EEFFC320FEF7E2FF1020FEF7E8FFC420E9
:10216000FEF7DCFF20200BE0180200201C0100A07D
:10217000204C43442049443A25780D0A00000000D1
:10218000FEF7D5FFC620FEF7C9FF0F20FEF7CFFFF1
:10219000D020FEF7C3FFA420FEF7C9FFA120FEF761
:1021A000C6FFE020FEF7BAFFD020FEF7C0FF0020F8
:1021B000FEF7BDFF0220FEF7BAFF0720FEF7B7FFCC
:1021C0000A20FEF7B4FF2820FEF7B1FF3220FEF709
:1021D000AEFF442000E062E0FEF7A9FF4220FEF7D8
:1021E000A6FF0620FEF7A3FF0E20FEF7A0FF122099
:1021F000FEF79DFF1420FEF79AFF1720FEF797FFCA
:10220000E120FEF78BFFD020FEF791FF0020FEF7C4
:102210008EFF0220FEF78BFF0720FEF788FF0A20C3
:10222000FEF785FF2820FEF782FF3120FEF77FFFB3
:102230005420FEF77CFF4720FEF779FF0E20FEF7C3
:1022400076FF1C20FEF773FF1720FEF770FF1B20A0
:10225000FEF76DFF1E20FEF76AFF2A20FEF75EFFE5
:102260000020FEF764FF0020FEF761FF0020FEF76C
:102270005EFFEF20FEF75BFF2B20FEF74FFF0020F5
:10228000FEF755FF0020FEF752FF0120FEF74FFF3B
:102290003F20FEF74CFF2920FEF740FF15E7FE48E0
:1022A000808845F21031884240F07C87ED20FEF7AF
:1022B00035FF0120FEF73BFFFE20FEF738FFEE2042
:1022C000FEF72CFFDE20FEF732FF2120FEF72FFF66
:1022D000F120FEF723FF0120FEF729FFDF20FEF7A4
:1022E0001DFF1020FEF723FFC420FEF717FF8F20ED
:1022F000FEF71DFFC620FEF711FF0020FEF717FFB7
:10230000E220FEF714FFE220FEF711FFE220FEF7C5
:102310000EFFBF20FEF702FFAA20FEF708FFB02045
:10232000FEF7FCFE0D20FEF702FF0020FEF7FFFE89
:102330000D20FEF7FCFE0020FEF7F9FE1120FEF74F
:10234000F6FE0020FEF7F3FE1920FEF7F0FE002057
:10235000FEF7EDFE2120FEF7EAFE0020FEF7E7FE85
:102360002D20FEF7E4FE0020FEF7E1FE3D20FEF703
:10237000DEFE0020FEF7DBFE5D20FEF7D8FE00202B
:10238000FEF7D5FE5D20FEF7D2FE0020FEF7CFFE61
:10239000B120FEF7C3FE8020FEF7C9FE0020FEF745
:1023A000C6FE8B20FEF7C3FE0020FEF7C0FE96207F
:1023B000FEF7BDFE0020FEF7BAFEB220FEF7AEFE2D
:1023C0000020FEF7B4FE0020FEF7B1FE0220FEF76B
:1023D000AEFE0020FEF7ABFE0320FEF7A8FE0020B5
:1023E000FEF7A5FEB320FEF799FE0020FEF79FFE44
:1023F0000020FEF79CFE0020FEF799FE0020FEF76D
:1024000096FE0020FEF793FE0020FEF790FE0020CF
:10241000FEF78DFE0020FEF78AFE0020FEF787FE05
:102420000020FEF784FE0020FEF781FE0020FEF76C
:102430007EFE0020FEF77BFE0020FEF778FE0020E7
:10244000FEF775FE0020FEF772FE0020FEF76FFE1D
:102450000020FEF76CFE0020FEF769FE0020FEF76C
:1024600066FE0020FEF763FE0020FEF760FE0020FF
:10247000FEF75DFE0020FEF75AFEB420FEF74EFE8A
:102480008B20FEF754FE0020FEF751FE9620FEF74B
:102490004EFE0020FEF74BFEA120FEF748FE002076
:1024A000FEF745FEB520FEF739FE0220FEF73FFE9F
:1024B0000020FEF73CFE0320FEF739FE0020FEF769
:1024C00036FE0420FEF733FE0020FEF730FEB62075
:1024D000FEF724FE0020FEF72AFE0020FEF727FE6E
:1024E000B720FEF71BFE0020FEF721FE0020FEF7BE
:1024F0001EFE3F20FEF71BFE0020FEF718FE5E20AA
:10250000FEF715FE0020FEF712FE6420FEF70FFE18
:102510000020FEF70CFE8C20FEF709FE0020FEF7DF
:1025200006FEAC20FEF703FE0020FEF700FEDC20D6
:10253000FEF7FDFD0020FEF7FAFD7020FEF7F7FD27
:102540000020FEF7F4FD9020FEF7F1FD0020FEF7DD
:10255000EEFDEB20FEF7EBFD0020FEF7E8FDDC20B2
:10256000FEF7E5FD0020FEF7E2FDB820FEF7D6FD00
:102570000020FEF7DCFD0020FEF7D9FD0020FEF76D
:10258000D6FD0020FEF7D3FD0020FEF7D0FD002091
:10259000FEF7CDFD0020FEF7CAFD0020FEF7C7FDC7
:1025A000BA20FEF7BBFD2420FEF7C1FD0020FEF798
:1025B000BEFD0020FEF7BBFD0020FEF7B8FDC120E8
:1025C000FEF7ACFD2020FEF7B2FD0020FEF7AFFDC8
:1025D0005420FEF7ACFD0020FEF7A9FDFF20FEF71A
:1025E000A6FD0020FEF7A3FDC220FEF797FD0A20FE
:1025F000FEF79DFD0020FEF79AFD0420FEF797FDF3
:102600000020FEF794FDC320FEF788FD3C20FEF776
:102610008EFD0020FEF78BFD3A20FEF788FD00209E
:10262000FEF785FD3920FEF782FD0020FEF77FFDD5
:102630003720FEF77CFD0020FEF779FD3C20FEF7F9
:1026400076FD0020FEF773FD3620FEF770FD0020BA
:10265000FEF76DFD3220FEF76AFD0020FEF767FDF4
:102660002F20FEF764FD0020FEF761FD2C20FEF711
:102670005EFD0020FEF75BFD2920FEF758FD0020DF
:10268000FEF755FD2620FEF752FD0020FEF74FFD18
:102690002420FEF74CFD01E0180200200020FEF788
:1026A00046FD2420FEF743FD0020FEF740FD2320D9
:1026B000FEF73DFD0020FEF73AFD3C20FEF737FD1A
:1026C0000020FEF734FD3620FEF731FD0020FEF736
:1026D0002EFD3220FEF72BFD0020FEF728FD2F20D7
:1026E000FEF725FD0020FEF722FD2C20FEF71FFD42
:1026F0000020FEF71CFD2920FEF719FD0020FEF743
:1027000016FD2620FEF713FD0020FEF710FD242005
:10271000FEF70DFD0020FEF70AFD2420FEF707FD61
:102720000020FEF704FD2320FEF701FD0020FEF748
:10273000FEFCC420FEF7F2FC6220FEF7F8FC00204D
:10274000FEF7F5FC0520FEF7F2FC0020FEF7EFFC9B
:102750008420FEF7ECFC0020FEF7E9FCF020FEF7F9
:10276000E6FC0020FEF7E3FC1820FEF7E0FC00206A
:10277000FEF7DDFCA420FEF7DAFC0020FEF7D7FC14
:102780001820FEF7D4FC0020FEF7D1FC5020FEF705
:10279000CEFC0020FEF7CBFC0C20FEF7C8FC00208E
:1027A000FEF7C5FC1720FEF7C2FC0020FEF7BFFCB9
:1027B0009520FEF7BCFC0020FEF7B9FCF320FEF7E5
:1027C000B6FC0020FEF7B3FCE620FEF7B0FC0020CC
:1027D000FEF7ADFCC520FEF7A1FC3220FEF7A7FCFA
:1027E0000020FEF7A4FC4420FEF7A1FC0020FEF729
:1027F0009EFC6520FEF79BFC0020FEF798FC7620EF
:10280000FEF795FC0020FEF792FC8820FEF78FFC77
:102810000020FEF78CFCC620FEF780FC2020FEF78F
:1028200086FC0020FEF783FC1720FEF780FC0020CA
:10283000FEF77DFC0120FEF77AFC0020FEF777FC16
:10284000C720FEF76BFC0020FEF771FC0020FEF7AE
:102850006EFC0020FEF76BFC0020FEF768FCC82031
:10286000FEF75CFC0020FEF762FC0020FEF75FFC38
:102870000020FEF75CFC0020FEF759FCC920FEF7A3
:102880004DFC0020FEF753FC0020FEF750FC00201A
:10289000FEF74DFC0020FEF74AFC0020FEF747FC47
:1028A0000020FEF744FC0020FEF741FC0020FEF76C
:1028B0003EFC0020FEF73BFC0020FEF738FC002029
:1028C000FEF735FC0020FEF732FC0020FEF72FFC5F
:1028D0000020FEF72CFC0020FEF729FC0020FEF76C
:1028E00026FCE020FEF71AFC1620FEF720FC002054
:1028F000FEF71DFC1C20FEF71AFC0020FEF717FC5B
:102900002120FEF714FC0020FEF711FC3620FEF714
:102910000EFC0020FEF70BFC4620FEF708FC002012
:10292000FEF705FC5220FEF702FC0020FEF7FFFB3D
:102930006420FEF7FCFB0020FEF7F9FB7A20FEF78F
:10294000F6FB0020FEF7F3FB8B20FEF7F0FB0020E8
:10295000FEF7EDFB9920FEF7EAFB0020FEF7E7FB10
:10296000A820FEF7E4FB0020FEF7E1FBB920FEF70C
:10297000DEFB0020FEF7DBFBC420FEF7D8FB0020C7
:10298000FEF7D5FBCA20FEF7D2FB0020FEF7CFFBF7
:10299000D220FEF7CCFB0020FEF7C9FBD920FEF7C2
:1029A000C6FB0020FEF7C3FBE020FEF7C0FB0020C3
:1029B000FEF7BDFBF320FEF7BAFB0020FEF7B7FBE6
:1029C000E120FEF7ABFB1620FEF7B1FB0020FEF77F
:1029D000AEFB1C20FEF7ABFB0020FEF7A8FB22207D
:1029E000FEF7A5FB0020FEF7A2FB3620FEF79FFBBB
:1029F0000020FEF79CFB4520FEF799FB0020FEF728
:102A000096FB5220FEF793FB0020FEF790FB64201C
:102A1000FEF78DFB0020FEF78AFB7A20FEF787FB8E
:102A20000020FEF784FB8B20FEF781FB0020FEF7E1
:102A30007EFB9920FEF77BFB0020FEF778FBA820A9
:102A4000FEF775FB0020FEF772FBB920FEF76FFB67
:102A50000020FEF76CFBC420FEF769FB0020FEF7A8
:102A600066FBCA20FEF763FB0020FEF760FBD22066
:102A7000FEF75DFB0020FEF75AFBD820FEF757FB60
:102A80000020FEF754FBE020FEF751FB0020FEF78C
:102A90004EFBF320FEF74BFB0020FEF748FBE22045
:102AA000FEF73CFB0520FEF742FB0020FEF73FFB54
:102AB0000B20FEF73CFB0020FEF739FB1B20FEF746
:102AC00036FB0020FEF733FB3420FEF730FB0020FE
:102AD000FEF72DFB4420FEF72AFB0020FEF727FB24
:102AE0004F20FEF724FB0020FEF721FB6120FEF7BC
:102AF0001EFB0020FEF71BFB7920FEF718FB0020D1
:102B0000FEF715FB8820FEF712FB0020FEF70FFBF7
:102B10009720FEF70CFB0020FEF709FBA620FEF72E
:102B200006FB0020FEF703FBB720FEF700FB0020AA
:102B3000FEF7FDFAC220FEF7FAFA0020FEF7F7FAD8
:102B4000C720FEF7F4FA0020FEF7F1FAD120FEF7D5
:102B5000EEFA0020FEF7EBFAD620FEF7E8FA0020A6
:102B6000FEF7E5FADD20FEF7E2FA0020FEF7DFFAD5
:102B7000F320FEF7DCFA0020FEF7D9FAE320FEF797
:102B8000CDFA0520FEF7D3FA0020FEF7D0FA0A208E
:102B9000FEF7CDFA0020FEF7CAFA1C20FEF7C7FAAE
:102BA0000020FEF7C4FA3320FEF7C1FA0020FEF73A
:102BB000BEFA4420FEF7BBFA0020FEF7B8FA502018
:102BC000FEF7B5FA0020FEF7B2FA6220FEF7AFFA80
:102BD0000020FEF7ACFA7820FEF7A9FA0020FEF7F5
:102BE000A6FA8820FEF7A3FA0020FEF7A0FA9720A5
:102BF000FEF79DFA0020FEF79AFAA620FEF797FA54
:102C00000020FEF794FAB720FEF791FA0020FEF7B5
:102C10008EFAC220FEF78BFA0020FEF788FAC72052
:102C2000FEF785FA0020FEF782FAD120FEF77FFA40
:102C30000020FEF77CFAD520FEF779FA0020FEF797
:102C400076FADD20FEF773FA0020FEF770FAF32023
:102C5000FEF76DFA0020FEF76AFAE420FEF75EFA4E
:102C60000120FEF764FA0020FEF761FA0120FEF76A
:102C70005EFA0020FEF75BFA0220FEF758FA002009
:102C8000FEF755FA2A20FEF752FA0020FEF74FFA17
:102C90003C20FEF74CFA0020FEF749FA4B20FEF7E5
:102CA00046FA0020FEF743FA5D20FEF740FA0020C6
:102CB000FEF73DFA7420FEF73AFA0020FEF737FAE5
:102CC0008420FEF734FA0020FEF731FA9320FEF755
:102CD0002EFA0020FEF72BFAA220FEF728FA002099
:102CE000FEF725FAB320FEF722FA0020FEF71FFABE
:102CF000BE20FEF71CFA0020FEF719FAC420FEF7EA
:102D000016FA0020FEF713FACD20FEF710FA002085
:102D1000FEF70DFAD320FEF70AFA0020FEF707FAB5
:102D2000DD20FEF704FA0020FEF701FAF320FEF79B
:102D3000FEF90020FEF7FBF9E520FEF7EFF9002091
:102D4000FEF7F5F90020FEF7F2F90020FEF7EFF9A3
:102D50000020FEF7ECF90220FEF7E9F90020FEF76B
:102D6000E6F92920FEF7E3F90020FEF7E0F93C2020
:102D7000FEF7DDF90020FEF7DAF94B20FEF7D7F970
:102D80000020FEF7D4F95D20FEF7D1F90020FEF710
:102D9000CEF97420FEF7CBF90020FEF7C8F98420A5
:102DA000FEF7C5F90020FEF7C2F99320FEF7BFF940
:102DB0000020FEF7BCF9A220FEF7B9F90020FEF7CB
:102DC000B6F9B320FEF7B3F90020FEF7B0F9BE2044
:102DD000FEF7ADF90020FEF7AAF9C420FEF7A7F927
:102DE0000020FEF7A4F9CD20FEF7A1F90020FEF7A0
:102DF0009EF9D320FEF79BF90020FEF798F9DC201E
:102E0000FEF795F90020FEF792F9F320FEF78FF90F
:102E10000020FEF78CF9E620FEF780F91120FEF77E
:102E200086F90020FEF783F93420FEF780F90020B0
:102E3000FEF77DF95620FEF77AF90020FEF777F9C4
:102E40007620FEF774F90020FEF771F97720FEF77F
:102E50006EF90020FEF76BF96620FEF768F9002096
:102E6000FEF765F98820FEF762F90020FEF75FF9AA
:102E70009920FEF75CF90020FEF759F9BB20FEF718
:102E800056F90020FEF753F99920FEF750F900207B
:102E9000FEF74DF96620FEF74AF90020FEF747F9E4
:102EA0005520FEF744F90020FEF741F95520FEF7C2
:102EB0003EF90020FEF73BF94520FEF738F90020E7
:102EC000FEF735F94320FEF732F90020FEF72FF91F
:102ED0004420FEF72CF90020FEF729F9E720FEF741
:102EE0001DF93220FEF723F90020FEF720F95520C6
:102EF000FEF71DF90020FEF71AF97620FEF717F904
:102F00000020FEF714F96620FEF711F90020FEF705
:102F10000EF96720FEF70BF90020FEF708F967208D
:102F2000FEF705F90020FEF702F98720FEF7FFF80B
:102F30000020FEF7FCF89920FEF7F9F80020FEF7D4
:102F4000F6F8BB20FEF7F3F80020FEF7F0F8992022
:102F5000FEF7EDF80020FEF7EAF87720FEF7E7F835
:102F60000020FEF7E4F84420FEF7E1F80020FEF729
:102F7000DEF85620FEF7DBF80020FEF7D8F8232015
:102F8000FEF7D5F80020FEF7D2F83320FEF7CFF891
:102F90000020FEF7CCF84520FEF7C9F80020FEF728
:102FA000C6F8E820FEF7BAF80020FEF7C0F80020C7
:102FB000FEF7BDF89920FEF7BAF80020FEF7B7F843
:102FC0008720FEF7B4F80020FEF7B1F88820FEF75E
:102FD000AEF80020FEF7ABF87720FEF7A8F8002047
:102FE000FEF7A5F86620FEF7A2F80020FEF79FF88E
:102FF0008820FEF79CF80020FEF799F8AA20FEF73B
:1030000096F80020FEF793F8BB20FEF790F800201A
:10301000FEF78DF89920FEF78AF80020FEF787F872
:103020006620FEF784F80020FEF781F85520FEF7B1
:103030007EF80020FEF77BF85520FEF778F8002098
:10304000FEF775F84420FEF772F80020FEF76FF8DF
:103050004420FEF76CF80020FEF769F85520FEF7D3
:1030600066F80020FEF763F8E920FEF757F8AA207B
:10307000FEF75DF80020FEF75AF80020FEF757F83B
:103080000020FEF754F80020FEF748F8AA20FEF7CB
:103090004EF8CF20FEF742F80020FEF748F8002057
:1030A000FEF745F80020FEF742F80020FEF73FF853
:1030B0000020FEF73CF80020FEF739F80020FEF76C
:1030C00036F80020FEF733F80020FEF730F8002035
:1030D000FEF72DF80020FEF72AF80020FEF727F86B
:1030E0000020FEF724F80020FEF721F80020FEF76C
:1030F0001EF80020FEF71BF80020FEF718F8F0205D
:10310000FEF70CF80020FEF712F85020FEF70FF83B
:103110000020FEF70CF80020FEF709F80020FEF76B
:1031200006F8F320FDF7FAFF0020FEF700F8F9207B
:10313000FDF7F4FF0620FDF7FAFF1020FDF7F7FF7B
:103140002920FDF7F4FF0020FDF7F1FF3A20FDF7FD
:10315000E5FF5520FDF7EBFF1120FDF7DFFF6420B1
:1031600004F08CFE2920FDF7D9FF3520FDF7D6FFAE
:103170000020FDF7DCFF5120FDF7D0FFFF20FDF719
:10318000D6FF5320FDF7CAFF2C20FDF7D0FF5520B6
:10319000FDF7C4FF8220FDF7CAFF2C20FDF7BEFF1C
:1031A00001F048B8FE48808845F2105188427DD130
:1031B00055214FF47040FDF7CCFFAA214FF20100DA
:1031C000FDF7C7FF52214FF20200FDF7C2FF0821B1
:1031D0004FF20300FDF7BDFF01214FF20400FDF7A0
:1031E000B8FF0D214FF43040FDF7B3FF0D214BF236
:1031F0000100FDF7AEFF0D214BF20200FDF7A9FF24
:1032000034214FF43640FDF7A4FF34214BF2016026
:10321000FDF79FFF34214BF20260FDF79AFF0D216D
:103220004FF43140FDF795FF0D214BF20110FDF7F2
:1032300090FF0D214BF20210FDF78BFF34214FF46C
:103240003740FDF786FF34214BF20170FDF781FF17
:1032500034214BF20270FDF77CFF00214FF4324025
:10326000FDF777FF00214BF20120FDF772FF0021EF
:103270004BF20220FDF76DFF24214FF43840FDF79B
:1032800068FF24214BF60100FDF763FF24214BF674
:103290000200FDF75EFF01214FF43F40FDF759FFAB
:1032A0000F214FF43340FDF754FF00E0FDE30F2101
:1032B0004BF20130FDF74DFF0F214BF20230FDF7CD
:1032C00048FF34214FF43940FDF743FF34214BF6DA
:1032D0000110FDF73EFF34214BF60210FDF739FFD8
:1032E00008214FF43540FDF734FF08214BF201501F
:1032F000FDF72FFF08214BF20250FDF72AFF0321B3
:103300004FF44240FDF725FF24214FF43A40FDF7EA
:1033100020FF24214BF60120FDF71BFF24214BF653
:103320000220FDF716FF00214FF43C40FDF711FF8E
:1033300078214BF60140FDF70CFF00214BF60240CF
:10334000FDF707FF00214FF43D40FDF702FF782114
:103350004BF60150FDF7FDFE00214BF60250FDF744
:10336000F8FE00214FF43E40FDF7F3FE64214BF6DA
:103370000160FDF7EEFE00214FF45140FDF7E9FE3C
:1033800033214DF20110FDF7E4FE00214DF2021051
:10339000FDF7DFFE34214DF20310FDF7DAFE0021C8
:1033A0004DF20410FDF7D5FE3A214DF20510FDF760
:1033B000D0FE00214DF20610FDF7CBFE4A214DF262
:1033C0000710FDF7C6FE00214DF20810FDF7C1FE03
:1033D0005C214DF20910FDF7BCFE00214DF20A10F0
:1033E000FDF7B7FE81214DF20B10FDF7B2FE002173
:1033F0004DF20C10FDF7ADFEA6214DF20D10FDF7BC
:10340000A8FE00214DF20E10FDF7A3FEE5214DF2BE
:103410000F10FDF79EFE01214DF21010FDF799FEF1
:1034200013214DF21110FDF794FE01214DF21210FF
:10343000FDF78FFE54214DF21310FDF78AFE012196
:103440004DF21410FDF785FE82214DF21510FDF7A7
:1034500080FE01214DF21610FDF77BFECA214DF2D0
:103460001710FDF776FE02214DF21810FDF771FEE0
:1034700000214DF21910FDF76CFE02214DF21A10D9
:10348000FDF767FE01214DF21B10FDF762FE0221E0
:103490004DF21C10FDF75DFE34214DF21D10FDF7BD
:1034A00058FE02214DF21E10FDF753FE67214DF22A
:1034B0001F10FDF74EFE02214DF22010FDF749FED0
:1034C00084214DF22110FDF744FE02214DF222101D
:1034D000FDF73FFEA4214DF22310FDF73AFE022135
:1034E0004DF22410FDF735FEB7214DF22510FDF702
:1034F00030FE02214DF22610FDF72BFECF214DF2BA
:103500002710FDF726FE02214DF22810FDF721FEBF
:10351000DE214DF22910FDF71CFE02214DF22A108A
:10352000FDF717FEF2214DF22B10FDF712FE0221DE
:103530004DF22C10FDF70DFEFE214DF22D10FDF782
:1035400008FE03214DF22E10FDF703FE10214DF26F
:103550002F10FDF7FEFD03214DF23010FDF7F9FDB0
:1035600033214DF23110FDF7F4FD03214DF23210FD
:10357000FDF7EFFD6D214DF23310FDF7EAFD00215F
:103580004FF45240FDF7E5FD33214DF20120FDF7E8
:10359000E0FD00214DF20220FDF7DBFD342101E0CA
:1035A000180200204DF20320FDF7D3FD00214DF25B
:1035B0000420FDF7CEFD3A214DF20520FDF7C9FDAF
:1035C00000214DF20620FDF7C4FD4A214DF20720EF
:1035D000FDF7BFFD00214DF20820FDF7BAFD5C218B
:1035E0004DF20920FDF7B5FD00214DF20A20FDF74F
:1035F000B0FD81214DF20B20FDF7ABFD00214DF216
:103600000C20FDF7A6FDA6214DF20D20FDF7A1FD32
:1036100000214DF20E20FDF79CFDE5214DF20F201B
:10362000FDF797FD01214DF21020FDF792FD1321CA
:103630004DF21120FDF78DFD01214DF21220FDF715
:1036400088FD54214DF21320FDF783FD01214DF239
:103650001420FDF77EFD82214DF21520FDF779FD46
:1036600001214DF21620FDF774FDCA214DF21720FD
:10367000FDF76FFD02214DF21820FDF76AFD0021D4
:103680004DF21920FDF765FD02214DF21A20FDF7DC
:1036900060FD01214DF21B20FDF75BFD02214DF283
:1036A0001C20FDF756FD34214DF21D20FDF751FD84
:1036B00002214DF21E20FDF74CFD67214DF21F2027
:1036C000FDF747FD02214DF22020FDF742FD842148
:1036D0004DF22120FDF73DFD02214DF22220FDF7A4
:1036E00038FDA4214DF22320FDF733FD02214DF2D8
:1036F0002420FDF72EFDB7214DF22520FDF729FDF1
:1037000002214DF22620FDF724FDCF214DF2272086
:10371000FDF71FFD02214DF22820FDF71AFDDE21E5
:103720004DF22920FDF715FD02214DF22A20FDF76B
:1037300010FDF2214DF22B20FDF70BFD02214DF281
:103740002C20FDF706FDFE214DF22D20FDF701FD99
:1037500003214DF22E20FDF7FCFC10214DF22F200D
:10376000FDF7F7FC03214DF23020FDF7F2FC332189
:103770004DF23120FDF7EDFC03214DF23220FDF733
:10378000E8FC6D214DF23320FDF7E3FC00214FF4FE
:103790005340FDF7DEFC33214DF20130FDF7D9FC3B
:1037A00000214DF20230FDF7D4FC34214DF20330FC
:1037B000FDF7CFFC00214DF20430FDF7CAFC3A21A1
:1037C0004DF20530FDF7C5FC00214DF20630FDF746
:1037D000C0FC4A214DF20730FDF7BBFC00214DF241
:1037E0000830FDF7B6FC5C214DF20930FDF7B1FC65
:1037F00000214DF20A30FDF7ACFC81214DF20B3077
:10380000FDF7A7FC00214DF20C30FDF7A2FCA6212C
:103810004DF20D30FDF79DFC00214DF20E30FDF70D
:1038200098FCE5214DF20F30FDF793FC01214DF29C
:103830001030FDF78EFC13214DF21130FDF789FC9D
:1038400001214DF21230FDF784FC54214DF213306A
:10385000FDF77FFC01214DF21430FDF77AFC822147
:103860004DF21530FDF775FC01214DF21630FDF7D4
:1038700070FCCA214DF21730FDF76BFC02214DF2AE
:103880001830FDF766FC00214DF21930FDF761FCA0
:1038900002214DF21A30FDF75CFC01214DF21B3084
:1038A000FDF757FC02214DF21C30FDF752FC34218C
:1038B0004DF21D30FDF74DFC02214DF21E30FDF79B
:1038C00048FC67214DF21F30FDF743FC02214DF209
:1038D0002030FDF73EFC84214DF22130FDF739FC0C
:1038E00002214DF22230FDF734FCA4214DF22330A9
:1038F000FDF72FFC02214DF22430FDF72AFCB72101
:103900004DF22530FDF725FC02214DF22630FDF762
:1039100020FCCF214DF22730FDF71BFC02214DF298
:103920002830FDF716FCDE214DF22930FDF711FCA1
:1039300002214DF22A30FDF70CFCF2214DF22B3022
:10394000FDF707FC02214DF22C30FDF702FCFE21B1
:103950004DF22D30FDF7FDFB03214DF22E30FDF72A
:10396000F8FB10214DF22F30FDF7F3FB03214DF250
:103970003030FDF7EEFB33214DF23130FDF7E9FB3E
:1039800003214DF23230FDF7E4FB6D214DF233306F
:10399000FDF7DFFB00214FF45440FDF7DAFB332144
:1039A0004DF20140FDF7D5FB00214DF20240FDF73D
:1039B000D0FB34214DF20340FDF7CBFB00214DF24B
:1039C0000440FDF7C6FB3A214DF20540FDF7C1FB6F
:1039D00000214DF20640FDF7BCFB4A214DF20740A5
:1039E000FDF7B7FB00214DF20840FDF7B2FB5C216B
:1039F0004DF20940FDF7ADFB00214DF20A40FDF705
:103A0000A8FB81214DF20B40FDF7A3FB00214DF2F5
:103A10000C40FDF79EFBA6214DF20D40FDF799FBF2
:103A200000214DF20E40FDF794FBE5214DF20F40D1
:103A3000FDF78FFB01214DF21040FDF78AFB1321AA
:103A40004DF21140FDF785FB01214DF21240FDF7CB
:103A500080FB54214DF21340FDF77BFB01214DF219
:103A60001440FDF776FB82214DF21540FDF771FB06
:103A700001214DF21640FDF76CFBCA214DF21740B3
:103A8000FDF767FB02214DF21840FDF762FB0021B4
:103A90004DF21940FDF75DFB02214DF21A40FDF792
:103AA00058FB01214DF21B4000E005E3FDF751FBFF
:103AB00002214DF21C40FDF74CFB34214DF21D401C
:103AC000FDF747FB02214DF21E40FDF742FB672147
:103AD0004DF21F40FDF73DFB02214DF22040FDF766
:103AE00038FB84214DF22140FDF733FB02214DF2DA
:103AF0002240FDF72EFBA4214DF22340FDF729FBC8
:103B000002214DF22440FDF724FBB7214DF2254060
:103B1000FDF71FFB02214DF22640FDF71AFBCF21D6
:103B20004DF22740FDF715FB02214DF22840FDF72D
:103B300010FBDE214DF22940FDF70BFB02214DF277
:103B40002A40FDF706FBF2214DF22B40FDF701FB69
:103B500002214DF22C40FDF7FCFAFE214DF22D40E2
:103B6000FDF7F7FA03214DF22E40FDF7F2FA10218E
:103B70004DF22F40FDF7EDFA03214DF23040FDF7F5
:103B8000E8FA33214DF23140FDF7E3FA03214DF21B
:103B90003240FDF7DEFA6D214DF23340FDF7D9FAE0
:103BA00000214FF45540FDF7D4FA33214DF2015076
:103BB000FDF7CFFA00214DF20250FDF7CAFA342189
:103BC0004DF20350FDF7C5FA00214DF20450FDF708
:103BD000C0FA3A214DF20550FDF7BBFA00214DF233
:103BE0000650FDF7B6FA4A214DF20750FDF7B1FA3B
:103BF00000214DF20850FDF7ACFA5C214DF209505E
:103C0000FDF7A7FA00214DF20A50FDF7A2FA812133
:103C10004DF20B50FDF79DFA00214DF20C50FDF7CF
:103C200098FAA6214DF20D50FDF793FA00214DF2BE
:103C30000E50FDF78EFAE5214DF20F50FDF789FA8F
:103C400001214DF21050FDF784FA13214DF211506D
:103C5000FDF77FFA01214DF21250FDF77AFA542157
:103C60004DF21350FDF775FA01214DF21450FDF796
:103C700070FA82214DF21550FDF76BFA01214DF2D9
:103C80001650FDF766FACA214DF21750FDF761FA9A
:103C900002214DF21850FDF75CFA00214DF2195047
:103CA000FDF757FA02214DF21A50FDF752FA0121A1
:103CB0004DF21B50FDF74DFA02214DF21C50FDF75D
:103CC00048FA34214DF21D50FDF743FA02214DF21E
:103CD0001E50FDF73EFA67214DF21F50FDF739FAED
:103CE00002214DF22050FDF734FA84214DF221508B
:103CF000FDF72FFA02214DF22250FDF72AFAA421F6
:103D00004DF22350FDF725FA02214DF22450FDF724
:103D100020FAB7214DF22550FDF71BFA02214DF292
:103D20002650FDF716FACF214DF22750FDF711FA74
:103D300002214DF22850FDF70CFADE214DF22950F8
:103D4000FDF707FA02214DF22A50FDF702FAF2219F
:103D50004DF22B50FDF7FDF902214DF22C50FDF7ED
:103D6000F8F9FE214DF22D50FDF7F3F903214DF244
:103D70002E50FDF7EEF910214DF22F50FDF7E9F925
:103D800003214DF23050FDF7E4F933214DF231506B
:103D9000FDF7DFF903214DF23250FDF7DAF96D211D
:103DA0004DF23350FDF7D5F900214FF45640FDF7A1
:103DB000D0F933214DF20160FDF7CBF900214DF22E
:103DC0000260FDF7C6F934214DF20360FDF7C1F939
:103DD00000214DF20460FDF7BCF93A214DF2056077
:103DE000FDF7B7F900214DF20660FDF7B2F94A215F
:103DF0004DF20760FDF7ADF900214DF20860FDF7C7
:103E0000A8F95C214DF20960FDF7A3F900214DF2FC
:103E10000A60FDF79EF981214DF20B60FDF799F9DB
:103E200000214DF20C60FDF794F9A6214DF20D60D2
:103E3000FDF78FF900214DF20E60FDF78AF9E521BB
:103E40004DF20F60FDF785F901214DF21060FDF78D
:103E500080F913214DF21160FDF77BF901214DF23C
:103E60001260FDF776F954214DF21360FDF771F9F8
:103E700001214DF21460FDF76CF982214DF21560BD
:103E8000FDF767F901214DF21660FDF762F9CA21CD
:103E90004DF21760FDF75DF902214DF21860FDF754
:103EA00058F900214DF21960FDF753F902214DF246
:103EB0001A60FDF74EF901214DF21B60FDF749F93B
:103EC00002214DF21C60FDF744F934214DF21D60D2
:103ED000FDF73FF902214DF21E60FDF73AF9672127
:103EE0004DF21F60FDF735F902214DF22060FDF71C
:103EF00030F984214DF22160FDF72BF902214DF2BA
:103F00002260FDF726F9A4214DF22360FDF721F987
:103F100002214DF22460FDF71CF9B7214DF2256016
:103F2000FDF717F902214DF22660FDF712F9CF21B6
:103F30004DF22760FDF70DF902214DF22860FDF7E3
:103F400008F9DE214DF22960FDF703F902214DF257
:103F50002A60FDF7FEF8F2214DF22B60FDF7F9F82B
:103F600002214DF22C60FDF7F4F8FE214DF22D6098
:103F7000FDF7EFF803214DF22E60FDF7EAF810216E
:103F80004DF22F60FDF7E5F803214DF23060FDF7AB
:103F9000E0F833214DF23160FDF7DBF803214DF2FB
:103FA0003260FDF7D6F86D214DF23360FDF7D1F8A0
:103FB00055214FF47040FDF7CCF8AA214FF20100D3
:103FC000FDF7C7F852214FF20200FDF7C2F80821B1
:103FD0004FF20300FDF7BDF800214FF20400FDF79A
:103FE000B8F8CC214FF43140FDF7B3F800214BF283
:103FF0000110FDF7AEF805214FF43640FDF7A9F8A2
:1040000070214FF43740FDF7A4F870214BF2017096
:10401000FDF79FF801214FF43840FDF79AF803218E
:104020004BF60100FDF795F803214BF60200FDF772
:1040300090F803214BF60300FDF78BF802214FF4B3
:104040003C40FDF786F800214BF60140FDF781F872
:1040500000214BF60240FDF77CF8D0214FF4494097
:10406000FDF777F802214CF60110FDF772F85021A8
:104070004CF60210FDF76DF850214CF60310FDF7D9
:1040800068F850214CF60410FDF763F800214FF456
:104090005450FDF75EF855214FF46850FDF759F87C
:1040A0004FF48850FDF73AF8782003F09FFE4FF464
:1040B0002450FDF733F8BDE0FE48808841F66311D7
:1040C0008842F8D1E220FDF729F81D20FDF72FF8EE
:1040D0000220FDF72CF80420FDF729F8642003F0F6
:1040E00085FEE020FDF71AF80120FDF720F80A20F0
:1040F00003F0C4FEE020FDF711F80320FDF717F8E8
:104100000C2003F0BBFE0120FDF708F80A2003F0A5
:10411000B5FEE620FDF702F82F20FDF708F8FF2096
:10412000FDF705F8FF20FDF702F8B020FCF7F6FFD9
:104130002020FCF7FCFF0020FCF7F9FF0320FCF730
:10414000F6FF40F21F30FCF7F2FF0120FCF7EFFF13
:1041500040F2DF10FCF7EBFF0020FCF7E8FFB42093
:10416000FCF7DCFF0420FCF7E2FF40F21F40FCF705
:10417000DEFF0020FCF7DBFF2E20FCF7D8FF00203D
:10418000FCF7D5FF0020FCF7D2FF0020FCF7CFFFA3
:104190000020FCF7CCFFB620FCF7C0FF0220FCF7A4
:1041A000C6FF4FF40370FCF7C2FF0020FCF7BFFF0F
:1041B0001720FCF7BCFF1520FCF7B9FF0020FCF727
:1041C000B6FF0020FCF7B3FFF020FCF7A7FF0320A9
:1041D000FCF7ADFF2920FCF7A1FFD020FCF79EFFE4
:1041E0000020FCF7A4FFBE20FCF798FF0520FCF799
:1041F0009EFFFE20FCF79BFF0120FCF798FF0020AC
:10420000FCF795FF0020FCF792FF0020FCF78FFFE2
:10421000B820FCF783FF0320FCF789FF0120FCF79F
:1042200086FFBA20FCF77AFF0120FCF780FF6420AC
:10423000FDF74FFA0020FDF778FA01209E4908604B
:104240004FF6FF70FDF7C6FB21B000BD2DE9F04F22
:1042500005460E4617469846DDF824A04FF0000BA1
:10426000781B401C1FFA80FB344614E02146284688
:10427000FCF79EFFFCF77FFF4FF0000907E04FF0CF
:10428000D840A0F880A009F101001FFA80F9D945B3
:10429000F5DB601C84B24445E8DDBDE8F08F2DE914
:1042A000F84F07460D4690469946DDF828B0A8EB32
:1042B0000700401C1FFA80FAA9EB0500401C80B2E1
:1042C0000090002414E0281981B23846FCF770FFF2
:1042D000FCF751FF002607E004FB0A603BF81000E2
:1042E00076490880701C86B25645F5DB601C84B2A6
:1042F00000988442E7DBBDE8F88F2DE9FF4F84B0DA
:1043000081468A460020039002900698A0EB09059A
:104310000798A0EB0A06CDF80490CDF800A0002D78
:1043200001DD012705E00DB9002702E04FF0FF375E
:104330006D42002E02DD4FF0010806E016B94FF085
:10434000000802E04FF0FF387642B54201DD2C460E
:1043500000E034464FF0000B21E0009A91B2019A40
:1043600090B2FDF731F90398284403900298304445
:1043700002900398A04205DD0398001B039001986A
:10438000384401900298A04205DD0298001B02907B
:104390000098404400900BF101001FFA80FB601C64
:1043A0008345DADD08B0BDE8F08FF0B504460D4670
:1043B00016461F462B46324629462046FFF79DFFEC
:1043C0003B46224629462046FFF797FF3B463246AA
:1043D00039462046FFF791FF3B4632462946304694
:1043E000FFF78BFFF0BD2DE9F04306460F469046E0
:1043F000002445460320A0EB48093CE07A1B91B21B
:10440000321990B2FDF7E0F83A1B91B2721990B2EE
:10441000FDF7DAF83A1991B2721990B2FDF7D4F8B3
:104420007A1991B2321990B2FDF7CEF87A1991B299
:10443000321B90B2FDF7C8F83A1991B2721B90B2D4
:10444000FDF7C2F87A1B91B2321B90B2FDF7BCF8AF
:104450003A1B91B2721B90B2FDF7B6F8641CB9F129
:10446000000F03DAA000801D814404E0601B80007F
:104470000A3081446D1EAC42C0DDBDE8F0832DE9F9
:10448000F84F80460E4617461C46B3462046E317B3
:1044900004EB5373DB1021464FEAE47C04EB5C7CB5
:1044A0004FEAEC0CA4EBCC0CBCF1000F08D04FF0A1
:1044B000010C07E018020020BC8240428000006C22
:1044C0004FF0000C6344224604EBD27C4FEA6C0CA4
:1044D00003FB0CF3DBB20093A7F12000C7B2002569
:1044E00056E00C2C07D107EB47009F4901EB8000F9
:1044F00010F8059013E0102C05D19C4800EB071034
:1045000010F805900BE0182C07D107EBC70098496D
:1045100001EB800010F8059001E0BDE8F88F4FF046
:10452000000A2FE009F0800030B19248028831463D
:104530004046FDF757F807E00A9828B98E480288E8
:1045400031464046FDF74EF84FEA49604FEA1069A0
:10455000701C86B289484088B04200DCDDE7A6EBDB
:104560000B00A0420AD15E4608F101001FFA80F854
:1045700082480088404500DCCFE706E00AF10100F0
:1045800000F0FF0ABAF1080FCCDB00BF681CC5B20F
:1045900000988542A5DB00BFBFE710B502460120A9
:1045A00000E050430B1EA1F10104E1B2F9D110BDAE
:1045B0002DE9FF4F81B0074691461E460E9D4FF0F4
:1045C000000A002439E0301B401EC1B20A20FFF768
:1045D000E4FFB9FBF0F00A21B0FBF1F201FB120895
:1045E000BAF1000F16D1701EA04213DDB8F1000F12
:1045F0000ED10020AB4605EBDB71491001FB0471C5
:10460000009088B22B4620220299FFF738FF12E073
:104610004FF0010A0020AB4605EBDB71491001FBAE
:104620000471009088B208F13001CAB22B46029999
:10463000FFF725FF00BF601CC4B2B442C3DB05B066
:10464000BDE8F08F2DE9FF4F82B0064692461F4627
:10465000DDE90F480020019000254DE0781B401E49
:10466000C1B20A20FFF799FFBAFBF0F00A21B0FBB4
:10467000F1F201FB1209019850BB781EA84227DD18
:10468000B9F1000F22D108F0800078B108F00100E4
:10469000A34604EBDB71491001FB0561009088B271
:1046A000234630220399FFF7EAFE0EE008F00100EE
:1046B000A34604EBDB71491001FB0561009088B251
:1046C000234620220399FFF7DAFE13E00120019030
:1046D00008F00100A34604EBDB71491001FB056102
:1046E000009088B209F13001CAB223460399FFF75E
:1046F000C6FE00BF681CC5B2BD42AFDB06B0BDE858
:10470000F08F2DE9F84704460D4690469946DDE9BD
:10471000096704F0FF0A08EB04001FFA80F809EBB0
:1047200005001FFA80F916E0444502DB5446A8193B
:1047300085B24D4500DB14E0002000903A78334606
:1047400029462046FFF79BFE304606EBD07104EB6E
:1047500061018CB27F1C38787E2802DC38782028F2
:10476000E2DA00BFBDE8F887DECF000852D40008C7
:1047700042DA00084E0000205000002018020020FD
:104780001CB50121022004F0D5FAC02000900120C0
:104790008DF8040000208DF8060003208DF8050038
:1047A00001208DF807006946884804F025F80120AB
:1047B000874908608749C1F89C021CBD10B5834831
:1047C000006820F44040814908600846006840F4D1
:1047D0008040086001207E49091D08607D49C1F8BC
:1047E0009802042003F002FB00207949091D0860AB
:1047F000042003F0FBFA00207649C1F8980210BDAE
:1048000010B57248006820F44040704908600846BE
:10481000006840F48040086000206D4908606D49E0
:10482000C1F89C02042003F0E1FA01206849086005
:104830006849C1F89C02042003F0D8FA10BD10B5F5
:1048400000246248006820F440406049086008463F
:104850000068086001205E49091D086003F0C6FA7F
:1048600001205C49C1F8980203F0C0FA07E0601C1F
:10487000C4B2FA2C03DDFFF7C3FF012010BD54487A
:104880007C3800680028F2D15149086000BFF5E784
:1048900010B500204E4908604C48006820F44040A4
:1048A0004A4908600846006840F4804008600020DB
:1048B0004849C1F89C02022003F098FA01204449BB
:1048C0000860022003F092FA00204249C1F89802E1
:1048D00010BD10B500203E4908603C48006820F437
:1048E00040403A4908600846006840F4804008604B
:1048F00001203849C1F89C02022003F077FA012018
:1049000033490860022003F071FA00203149C1F8F0
:10491000980210BD70B504462C48006820F4404051
:104920002A4908600846006840F48040086000207A
:1049300027490860002517E0E0092549091D08609E
:104940006006040E022003F051FA01202149C1F84B
:104950009802022003F04AFA00201D490860022054
:1049600003F044FA681CC5B2082DE5DB70BD70B5D4
:10497000054600241548006820F4404013490860AB
:10498000084600680860002616E00020104908600C
:10499000022003F02BFA01200E49C1F898026006AC
:1049A000040E0B487C38006808B1601CC4B20120BA
:1049B00003F01CFA701CC6B2082EE6DB15B9FFF72F
:1049C00088FF01E0FFF764FF204670BD000402404D
:1049D000988240420080404270B505460C46FFF781
:1049E000EDFED020FFF796FFFFF729FF18B1FFF784
:1049F00007FF012070BD2846FFF78CFFFFF71FFF60
:104A00002046FFF787FFFFF71AFF18B1FFF7F8FE00
:104A10000120EFE7FFF7F4FE0020EBE770B5044656
:104A20000025BC2C01DB012510E0622C01DB0225F6
:104A30000CE02A2C01DB032508E0142C01DB042503
:104A400004E00A2C01DB052500E0062529461A2092
:104A5000FFF7C2FF70BD70B50446B4F57A7F01DD83
:104A60004FF47A74042C00DA04244FF47A7090FB2B
:104A7000F4F0401EC5B229461920FFF7ADFF0546E8
:104A8000264604EBD671C1F34F00FFF7C7FF70BD98
:104A900070B50446FFF792FED020FFF73BFFFFF70B
:104AA000CEFE2046FFF736FFFFF7C9FEFFF786FE72
:104AB000D120FFF72FFFFFF7C2FE0020FFF757FFBF
:104AC0000546FFF79DFE284670BD10B50446E0067A
:104AD000010E1C20FFF780FF10BD10B50446E00654
:104AE000010E1B20FFF778FF10BD10B5FFF748FE41
:104AF00080216B20FFF770FF642003F0BFF90021D5
:104B00006B20FFF769FF0320FFF7E7FF0020FFF7A7
:104B1000DCFF3220FFF79FFF00213820FFF75CFF0A
:104B200000216A20FFF758FF00212320FFF754FFE0
:104B300080213720FFF750FF7520FFF7A9FF0446BB
:104B4000682C0BD101216B20FFF746FF00216C2060
:104B5000FFF742FF3220FFF77EFF01E0012010BD8A
:104B60000020FCE72DE9F04106460F4614461D469D
:104B7000FFF724FE002141EA4601C8B2FFF7CAFE52
:104B8000FFF75DFE20B1FFF73BFE0120BDE8F0819D
:104B90003846FFF7BFFEFFF752FEFFF70FFE012179
:104BA00001EB4601C8B2FFF7B5FEFFF748FE0DE086
:104BB000012C04D10020FFF7DAFE287003E0012069
:104BC000FFF7D5FE2870601EC4B26D1C002CEFD11B
:104BD000FFF716FE0020D9E710B52DED088B82B047
:104BE00001AB022241216820FFF7BCFF9DF80500C0
:104BF0009DF8041040EA012004B2204607F089FE27
:104C000041EC1B0B9FED500B53EC102B07F0C0FC3D
:104C100041EC1A0B9FED4E0B53EC102B07F004FCEC
:104C200041EC190B07F0CEFB08EE100A9FED4A0A83
:104C300028EE000ABDEEC00A10EE100A00B202B063
:104C4000BDEC088B10BD2DE9FC4104460D4616460F
:104C50006B46062243216820FFF784FF0746BFB951
:104C60009DF801009DF8001040EA012000B220806C
:104C70009DF803009DF8021040EA012000B2288050
:104C80009DF805009DF8041040EA012000B2308034
:104C90003846BDE8FC812DE9FC4104460D46164628
:104CA0006B4606223B216820FFF75CFF0746BFB931
:104CB0009DF801009DF8001040EA012000B220801C
:104CC0009DF803009DF8021040EA012000B2288000
:104CD0009DF805009DF8041040EA012000B23080E4
:104CE0003846BDE8FC812DE9F04105460E461746E1
:104CF0009846FFF763FD002141EA4501C8B2FFF77E
:104D000009FEFFF79CFD20B1FFF77AFD0120BDE809
:104D1000F0813046FFF7FEFDFFF791FD00240CE027
:104D200018F80400FFF7F6FDFFF789FD18B1FFF74B
:104D300067FD0120EBE7601CC4B2BC42F0DBFFF76B
:104D40005FFD0020E3E70000000000000040754028
:104D5000A4703D0AD74342400000C84238B504461B
:104D6000F74890F82400C0B114B10220009001E08F
:104D700000200090F24A1268D17BF14A5268107804
:104D80006B460122FFF7AFFF10B14FF0FF3038BD87
:104D90009DF80010EA48417423E0E948807A10B990
:104DA0004FF0FF30F3E724B1E548407C08B1002024
:104DB000EDE714B10120009001E000200090E04AEE
:104DC0001268D17BDE4A526810786B460122FFF7E9
:104DD0008AFF10B14FF0FF30D9E79DF80010D84896
:104DE00041740020D3E738B500241FE0D4480068A0
:104DF000C07AA04204D0D2480068407DA04200D1D1
:104E000012E0CF49496808786B4601222146FFF736
:104E1000A9FE10B14FF0FF3038BD9DF800202146AB
:104E2000C8A006F02BFA00BF601CC4B2C44840689A
:104E30000079A042DADC0020EEE770B504460D46AA
:104E4000BF480068C07AA04204D0BD480068407DD9
:104E5000A04202D14FF0FF3070BDB94840680079E0
:104E6000A04202DC4FF0FF30F6E7B5494968087808
:104E70002B4601222146FFF775FEEDE738B50446C3
:104E8000AF4890F82300A04201D1002038BD14B1F2
:104E90003020009001E000200090A948807C20B1E3
:104EA0009DF8000040F002000090A54890F8220014
:104EB00020B19DF8000040F080000090A04A1268E8
:104EC000117D9F4A526810786B460122FFF70BFF55
:104ED00010B14FF0FF30D9E7994880F82340002007
:104EE000D4E738B5044604F0700010B101200090FA
:104EF00005E014B10020009001E040200090904AAD
:104F00001268917C8E4A526810786B460122FFF736
:104F1000EAFE20B100218A488172481E38BD9DF802
:104F2000000020F04001864801730020009004F04A
:104F3000400020B99DF8000040F00400009004F00B
:104F4000200020B99DF8000040F00200009004F01D
:104F5000100020B99DF8000040F00100009004F01E
:104F6000080020B99DF8000040F038000090744A15
:104F70001268D17C724A526810786B460122FFF7A2
:104F8000B2FE20B100216E488172481EC6E724B1EE
:104F9000082C02D00020FFF771FF694884720021BD
:104FA0000175322002F06AFF0020B7E738B50446E9
:104FB0006348807CA04201D1002038BD002C46D03F
:104FC0005F4A126811795E4A526810786B46012276
:104FD000FFF7C8FD10B14FF0FF30EEE79DF800007D
:104FE00020F020000090564A12681179544A526805
:104FF00010786B460122FFF776FE10B14FF0FF30BC
:10500000DBE7032002F03AFF022000904C4890F8C2
:10501000220020B19DF8000040F080000090484838
:1050200090F8230020B19DF8000040F0300000907F
:10503000434A1268117D424A526810786B46012239
:10504000FFF751FE002851D04FF0FF30B5E73C4A42
:10505000126811793A4A526810786B460122FFF7BC
:1050600081FD10B14FF0FF30A7E73548807A00F09E
:10507000010028B19DF8000040F02000009004E0FD
:105080009DF8000020F0200000902D4A1268117950
:105090002B4A526810786B460122FFF724FE10B1AC
:1050A0004FF0FF3089E7032002F0E8FE244890F833
:1050B000220010B18020009001E0002000902048E4
:1050C00090F8230020B19DF8000040F030000090DF
:1050D0001B4A1268117D1A4A526810786B460122E9
:1050E000FFF701FE10B14FF0FF3066E714488474FB
:1050F000002062E708B51248807A10B94FF0FF30FF
:1051000008BD002000900E4A1268D17B0C4A5268FC
:1051100010786B460122FFF7E6FD10B14FF0FF302B
:10512000EEE7074A12685179054A526810786B46D3
:105130000122FFF7D8FD68B14FF0FF30E0E7000033
:1051400054000020252335783A20252335780D0A90
:1051500000000000F84A12681179F74A5268107886
:105160006B460122FFF7BFFD10B14FF0FF30C7E7DC
:10517000F14890F82400002853D00C200090EE4A0B
:1051800012681179EC4A526810786B460122FFF7D9
:10519000AAFD10B14FF0FF30B2E7322002F06EFEF0
:1051A000C0200090E448807A00F0010020B19DF812
:1051B000000040F020000090DF4A12681179DE4ABA
:1051C000526810786B460122FFF78DFD10B14FF049
:1051D000FF3095E7D848407C10B10220009001E0F4
:1051E00000200090D44A1268D17BD34A52681078CC
:1051F0006B460122FFF777FD10B14FF0FF307FE7DC
:1052000000200090CC4A12685179CB4A526810783D
:105210006B460122FFF767FD002855D04FF0FF30A5
:105220006EE704200090C44A12681179C24A52689D
:1052300010786B460122FFF756FD10B14FF0FF309A
:105240005EE7BD48807C20B9BB48807A00F0010051
:1052500010B94020009001E060200090B64A12682A
:105260001179B54A526810786B460122FFF73BFD71
:1052700010B14FF0FF3043E7322002F0FFFDAE489F
:10528000407C10B10120009001E000200090AA4A6B
:105290001268D17BA84A526810786B460122FFF74A
:1052A00022FD10B14FF0FF302AE7A34A126851796E
:1052B000A14A52681078A04B10330122FFF713FD6A
:1052C00010B14FF0FF301BE7002019E770B504461E
:1052D000002624F00104984890F8240008B100202A
:1052E00070BD9548807A10B94FF0FF30F8E79248CA
:1052F000057C807A2040904908740846007CA042D2
:1053000002D04FF0FF3600E0002614B98A48007D35
:1053100018B10120FFF722FD02E00020FFF71EFD7B
:105320003CB1FFF7E7FE20B1834805744FF0FF3032
:10533000D6E73046D4E738B504467F48807A10B9BE
:105340004FF0FF3038BDBC2C02DB0120009015E08F
:10535000622C02DB0220009010E02A2C02DB0320EA
:1053600000900BE0142C02DB0420009006E00A2CD5
:1053700002DB0520009001E0062000906E48C07A14
:105380009DF80010884201D10020DBE76A4A1268CC
:105390009178694A526810786B460122FFF7A3FCA6
:1053A00010B14FF0FF30CDE79DF800106248C17298
:1053B0000020C7E738B50446282C02DD4FF0FF3047
:1053C00038BDDCB90020FFF759FD00208DF8000042
:1053D00007208DF80100584A1268917C564A52689D
:1053E00010786B460222FFF77EFC10B14FF0FF30C1
:1053F000E6E70021504801750020E1E70120FFF7B2
:105400003DFD20208DF80000012C06D100208DF8F4
:1054100001000520FFF78FFF17E0052C06DC0120B7
:105420008DF801000520FFF786FF0EE0142C06DC46
:1054300002208DF801000A20FFF77DFF05E0032020
:105440008DF801001420FFF776FF9DF80100072179
:1054500001EB8010C0B28DF80100374A1268917CD0
:10546000354A526810786B460222FFF73CFC10B1B7
:105470004FF0FF30A4E708212F488172002101730B
:10548000012101750020FFF721FF002098E738B5C2
:1054900004462948807A10B94FF0FF3038BD2648BD
:1054A00090F8240010B14FF0FF30F7E72248007D5C
:1054B00050B134B1282C04DCE0B2FFF77BFF0020B0
:1054C000ECE70020FFF776FF042C01DA042404E067
:1054D000B4F57A7F01DD4FF47A744FF47A7090FB63
:1054E000F4F0401EC0B20090134A12685178124A7C
:1054F000526810786B460122FFF7F5FB10B14FF0B0
:10550000FF30CBE79DF80000401C4FF47A7191FB0F
:10551000F0F081B20848C1810146C9894810FFF7FF
:105520000AFF0020BAE738B504460348807A28B954
:105530004FF0FF3038BD000054000020022C06D090
:10554000042C07D0082C08D0102C0CD108E0002027
:1055500000900BE00820009008E01020009005E08B
:105560001820009002E04FF0FF30E3E700BFF7485B
:10557000407A9DF80010B0EBE10F01D10020D9E78F
:10558000F24A1268D179F14A526810786B460122CA
:10559000FFF7A9FB10B14FF0FF30CBE79DF80000FB
:1055A000C110EA4841720020C4E738B50446E74814
:1055B000807A10B94FF0FF3038BDFA2C09D0B4F51D
:1055C000FA7F09D0B4F57A7F09D0B4F5FA6F0CD11F
:1055D00008E0002000900BE00820009008E0102078
:1055E000009005E01820009002E04FF0FF30E3E764
:1055F00000BFD648007A9DF80010B0EBE10F01D152
:105600000020D9E7D14A12689179D04A52681078BF
:105610006B460122FFF767FB10B14FF0FF30CBE77D
:105620009DF80000C010C94908720020C4E71CB5ED
:1056300080208DF80000C54A1268917CC34A5268E8
:1056400010786B460122FFF74EFB10B14FF0FF3090
:105650001CBD642002F012FC00208DF80000BB4A43
:105660001268917CB94A526810786B460122FFF7A4
:105670003AFB10B14FF0FF30EAE7B44A1268917D6F
:10568000B24A526810786B460622FFF76BFA10B1E7
:105690004FF0FF30DCE79DF80500C007400F9DF894
:1056A000031001F0010140EA41009DF8011001F0F2
:1056B000010140EA010494B1012C03D10121A34866
:1056C000C17431E0022C03D10021A048C1742BE049
:1056D00021469FA005F0D2FD4FF0FF30B8E79B4A6E
:1056E0001268D178994A526810786B460122FFF708
:1056F00039FA10B14FF0FF30AAE79DF8000000F032
:105700000F042CB99C4805F0B9FD4FF0FF309FE71E
:10571000042C06D199A005F0B1FD01218B48C1747C
:1057200002E000218948C174FF2188488172FF206E
:1057300086490872FF2185484172C1724FF6FF7198
:10574000C181FF21017481740121017380F822104D
:10575000002180F823104175017516300160416009
:105760008160163880F8241080F82510C1844FF429
:10577000FA60FFF71AFF10B14FF0FF3068E7022020
:10578000FFF7D1FE10B14FF0FF3061E72A20FFF79D
:10579000D2FD10B14FF0FF305AE73220FFF777FE0D
:1057A00010B14FF0FF3053E70020FFF78FFD10B12D
:1057B0004FF0FF304CE70020FFF7F8FB10B14FF03F
:1057C000FF3045E70020FFF78CFB002040E77047E3
:1057D0007CB504460D465D48807A00F0700010B933
:1057E0004FF0FF307CBD594A1268117B574A52680E
:1057F00010786B460622FFF7B5F910B14FF0FF3075
:10580000F0E79DF801009DF8001040EA012000B289
:1058100020809DF803009DF8021040EA012000B2AC
:1058200060809DF805009DF8041040EA012000B258
:10583000A08015B12846FFF7CAFF0020D2E77CB54B
:1058400004460D464148807A00F0080010B94FF038
:10585000FF307CBD3D4A1268517B3C4A526810784B
:105860006B460622FFF77EF910B14FF0FF30F0E7EC
:105870009DF801009DF8001040EA012000B2208050
:105880009DF803009DF8021040EA012000B26080FC
:105890009DF805009DF8041040EA012000B2A080A8
:1058A00015B12846FFF793FF0020D2E7F8B506466A
:1058B0000C462648807A10B94FF0FF30F8BD234AD5
:1058C0001268917B214A526810786B460222FFF7DA
:1058D00049F910B14FF0FF30F0E79DF801009DF855
:1058E000001040EA012005B214B12046FFF76FFF17
:1058F00016484068B0F9080000EE100AF8EEC00A39
:1059000000EE105AB8EEC00A70EE600A0F48406808
:10591000C08800EE100AB8EE400A80EE801A9FEDB3
:105920001F0A31EE000ADFED1E0A20EE200ABDEE4E
:10593000C00A86ED000A0020C0E710B588B0044612
:105940001CB94FF0FF3008B010BD2BE05400002010
:10595000556E737570706F7274656420736F6674C2
:10596000776172652070726F6475637420726576FA
:105970002025642E0A00000030F5000848616C669E
:105980002073656E736974697669747920706172C9
:105990007420666F756E642E0A00000000000C42D1
:1059A00000008047206830B9606820B9A06810B94D
:1059B000002008B010BDF9494968087806AB0322F9
:1059C0001146FFF7CFF810B14FF0FF30F1E79DF827
:1059D0001800082101EB201000F00F00ADF80000C6
:1059E0009DF8190001EB201000F00F00ADF8020047
:1059F0009DF81A0001EB201000F00F00ADF8040034
:105A000020684100BDF90000403091FBF0F000B289
:105A1000ADF8100060684100BDF90200403091FB14
:105A2000F0F000B2ADF81200A0684100BDF904002A
:105A3000403091FBF0F000B2ADF81400D74949684E
:105A4000087806AB06221146FFF78CF810B14FF02C
:105A5000FF30AEE79DF819009DF8181040EA0120CC
:105A600000B2ADF808009DF81B009DF81A1040EA3E
:105A7000012000B2ADF80A009DF81D009DF81C1031
:105A800040EA012000B2ADF80C00BDF81000BDF8EE
:105A90000810084400B2ADF81000BDF81200BDF8BF
:105AA0000A10084400B2ADF81200BDF81400BDF8A9
:105AB0000C10084400B2ADF81400BDF81000000A44
:105AC0008DF81800BDF81000C0B28DF81900BDF8AF
:105AD0001200000A8DF81A00BDF81200C0B28DF84D
